:020000040800F2
:10000000000002207D310008F530000803310008AF
:10001000093100080F310008153100080000000008
:100020000000000000000000000000001B3100087C
:100030002931000800000000373100084531000870
:10004000CD310008CD310008CD310008CD31000898
:10005000CD310008CD310008CD310008CD31000888
:10006000CD310008CD310008CD310008CD31000878
:10007000CD310008CD310008CD310008CD31000868
:10008000CD310008CD310008CD310008CD31000858
:10009000CD310008CD310008CD310008CD31000848
:1000A000CD310008CD310008CD310008CD31000838
:1000B000CD310008CD310008CD310008CD31000828
:1000C000CD310008CD310008CD310008CD31000818
:1000D000CD310008CD310008CD310008CD31000808
:1000E000CD310008CD310008CD310008CD310008F8
:1000F000CD310008CD310008CD310008CD310008E8
:10010000CD310008CD310008CD310008CD310008D7
:10011000CD310008CD310008CD310008CD310008C7
:10012000CD310008CD310008CD310008CD310008B7
:10013000CD310008CD310008CD310008CD310008A7
:10014000CD310008CD310008CD310008CD31000897
:10015000CD310008CD310008CD310008CD31000887
:10016000CD310008CD310008CD310008CD31000877
:10017000CD310008CD310008CD310008000000006D
:08018000CD310008CD3100086B
:1001880010B5054C237833B9044B13B10448AFF3C9
:1001980000800123237010BD0C0000200000000027
:1001A8003C35000808B5034B1BB103490348AFF3BE
:1001B800008008BD00000000100000203C35000849
:1001C80081F0004102E000BF83F0004330B54FEA00
:1001D80041044FEA430594EA050F08BF90EA020F6D
:1001E8001FBF54EA000C55EA020C7FEA645C7FEA00
:1001F800655C00F0E2804FEA5454D4EB5555B8BF23
:100208006D420CDD2C4480EA020281EA030382EA93
:10021800000083EA010180EA020281EA0303362D25
:1002280088BF30BD11F0004F4FEA01314FF4801CF8
:100238004CEA113102D0404261EB410113F0004F0A
:100248004FEA03334CEA133302D0524263EB4303C1
:1002580094EA050F00F0A780A4F10104D5F1200E5F
:100268000DDB02FA0EFC22FA05F2801841F10001BA
:1002780003FA0EF2801843FA05F359410EE0A5F18E
:1002880020050EF1200E012A03FA0EFC28BF4CF0BF
:10029800020C43FA05F3C01851EBE37101F0004575
:1002A80007D54FF0000EDCF1000C7EEB00006EEB82
:1002B8000101B1F5801F1BD3B1F5001F0CD349080C
:1002C8005FEA30004FEA3C0C04F101044FEA445263
:1002D80012F5800F80F09A80BCF1004F08BF5FEAEA
:1002E800500C50F1000041EB045141EA050130BDCA
:1002F8005FEA4C0C404141EB010111F4801FA4F16D
:100308000104E9D191F0000F04BF01460020B1FAC1
:1003180081F308BF2033A3F10B03B3F120020CDAF9
:100328000C3208DD02F1140CC2F10C0201FA0CF0D7
:1003380021FA02F10CE002F11402D8BFC2F1200C3C
:1003480001FA02F120FA0CFCDCBF41EA0C019040F2
:10035800E41AA2BF01EB0451294330BD6FEA04043B
:100368001F3C1CDA0C340EDC04F11404C4F1200226
:1003780020FA04F001FA02F340EA030021FA04F338
:1003880045EA030130BDC4F10C04C4F1200220FA8F
:1003980002F001FA04F340EA0300294630BD21FACD
:1003A80004F0294630BD94F0000F83F4801306BF93
:1003B80081F480110134013D4EE77FEA645C18BF87
:1003C8007FEA655C29D094EA050F08BF90EA020F1E
:1003D80005D054EA000C04BF1946104630BD91EA16
:1003E800030F1EBF0021002030BD5FEA545C05D119
:1003F8004000494128BF41F0004130BD14F5800458
:100408003CBF01F5801130BD01F0004545F0FE41CB
:1004180041F470014FF0000030BD7FEA645C1ABF00
:10042800194610467FEA655C1CBF0B46024650EA37
:10043800013406BF52EA033591EA030F41F4002163
:1004480030BD00BF90F0000F04BF0021704730B5E9
:100458004FF4806404F132044FF000054FF00001BE
:1004680050E700BF90F0000F04BF0021704730B57F
:100478004FF4806404F1320410F0004548BF404254
:100488004FF000013EE700BF42004FEAE2014FEAA9
:1004980031014FEA02701FBF12F07F4393F07F4F84
:1004A80081F06051704792F0000F14BF93F07F4FB6
:1004B800704730B54FF4607401F0004521F00041F9
:1004C80020E700BF50EA010208BF704730B54FF07F
:1004D80000050AE050EA010208BF704730B511F084
:1004E800004502D5404261EB41014FF4806404F1BC
:1004F80032045FEA915C3FF4DCAE4FF003025FEA3E
:10050800DC0C18BF03325FEADC0C18BF033202EBC5
:10051800DC02C2F1200300FA03FC20FA02F001FA1F
:1005280003FE40EA0E0021FA02F11444C1E600BFBE
:1005380070B54FF0FF0C4CF4E06C1CEA11541DBF71
:100548001CEA135594EA0C0F95EA0C0F00F0DEF83C
:100558002C4481EA030621EA4C5123EA4C5350EA21
:10056800013518BF52EA033541F4801143F4801372
:1005780038D0A0FB02CE4FF00005E1FB02E506F003
:100588000042E0FB03E54FF00006E1FB03569CF058
:10059800000F18BF4EF0010EA4F1FF04B6F5007F5E
:1005A80064F5407404D25FEA4E0E6D4146EB0606D0
:1005B80042EAC62141EA55514FEAC52040EA5E5059
:1005C8004FEACE2EB4F1FD0C88BFBCF5E06F1ED803
:1005D800BEF1004F08BF5FEA500E50F1000041EB3A
:1005E800045170BD06F0004646EA010140EA0200E7
:1005F80081EA0301B4EB5C04C2BFD4EB0C0541EA09
:10060800045170BD41F480114FF0000E013C00F31D
:10061800AB8014F1360FDEBF002001F0004170BD41
:10062800C4F10004203C35DA0C341BDC04F114045A
:10063800C4F1200500FA05F320FA04F001FA05F2E6
:1006480040EA020001F0004221F0004110EBD370B3
:1006580021FA04F642EB06015EEA430E08BF20EADF
:10066800D37070BDC4F10C04C4F1200500FA04F382
:1006780020FA05F001FA04F240EA020001F0004114
:1006880010EBD37041F100015EEA430E08BF20EA87
:10069800D37070BDC4F1200500FA05F24EEA020ECF
:1006A80020FA04F301FA05F243EA020321FA04F0FE
:1006B80001F0004121FA04F220EA020000EBD370B5
:1006C8005EEA430E08BF20EAD37070BD94F0000FB5
:1006D8000FD101F00046400041EB010111F4801FE9
:1006E80008BF013CF7D041EA060195F0000F18BF9A
:1006F800704703F00046520043EB030313F4801FD6
:1007080008BF013DF7D043EA0603704794EA0C0F8F
:100718000CEA135518BF95EA0C0F0CD050EA4106A5
:1007280018BF52EA4306D1D181EA030101F0004122
:100738004FF0000070BD50EA410606BF104619464A
:1007480052EA430619D094EA0C0F02D150EA013656
:1007580013D195EA0C0F05D152EA03361CBF104697
:1007680019460AD181EA030101F0004141F0FE4136
:1007780041F470014FF0000070BD41F0FE4141F4BA
:10078800780170BD70B54FF0FF0C4CF4E06C1CEABA
:1007980011541DBF1CEA135594EA0C0F95EA0C0F6F
:1007A80000F0A7F8A4EB050481EA030E52EA03352A
:1007B8004FEA013100F088804FEA03334FF080554B
:1007C80045EA131343EA12634FEA022245EA111578
:1007D80045EA10654FEA00260EF000419D4208BF29
:1007E800964244F1FD0404F5407402D25B084FEAD6
:1007F8003202B61A65EB03055B084FEA32024FF482
:1008080080104FF4002CB6EB020E75EB030E22BFDE
:10081800B61A754640EA0C005B084FEA3202B6EB9E
:10082800020E75EB030E22BFB61A754640EA5C004D
:100838005B084FEA3202B6EB020E75EB030E22BFDD
:10084800B61A754640EA9C005B084FEA3202B6EBDE
:10085800020E75EB030E22BFB61A754640EADC009D
:1008680055EA060E18D04FEA051545EA16754FEAFF
:1008780006164FEAC30343EA52734FEAC2025FEA1D
:100888001C1CC0D111F4801F0BD141EA00014FF0AC
:1008980000004FF0004CB6E711F4801F04BF01437D
:1008A8000020B4F1FD0C88BFBCF5E06F3FF6AFAE99
:1008B800B5EB030C04BFB6EB020C5FEA500C50F129
:1008C800000041EB045170BD0EF0004E4EEA1131AC
:1008D80014EB5C04C2BFD4EB0C0541EA045170BDB3
:1008E80041F480114FF0000E013C90E645EA060EF7
:1008F8008DE60CEA135594EA0C0F08BF95EA0C0F25
:100908003FF43BAF94EA0C0F0AD150EA01347FF46C
:1009180034AF95EA0C0F7FF425AF104619462CE743
:1009280095EA0C0F06D152EA03353FF4FDAE1046A6
:10093800194622E750EA410618BF52EA43067FF4F7
:10094800C5AE50EA41047FF40DAF52EA43057FF487
:10095800EBAE12E74FEA4102B2F1E04324BFB3F530
:10096800001CDCF1FE5C0DD901F0004C4FEAC0021E
:100978004CEA5070B2F1004F40EB830008BF20F002
:100988000100704711F0804F21D113F13872BCBFBC
:1009980001F00040704741F480114FEA5252C2F111
:1009A8001802C2F1200C10FA0CF320FA02F018BF5A
:1009B80040F001004FEAC1234FEAD32303FA0CFCAD
:1009C80040EA0C0023FA02F34FEA4303CCE77FEA3C
:1009D800625307D150EA01331EBF4FF0FE4040F486
:1009E8004000704701F0004040F0FE4040F4000035
:1009F800704700BF53B94AB9002908BF00281CBF77
:100A08004FF0FF314FF0FF3000F07AB9ADF1080C2C
:100A18006DE904CE00F006F8DDF804E0DDE9022314
:100A280004B070472DE9F0478C460D460446089EF1
:100A3800002B51D18A4217466DD9B2FA82FEBEF117
:100A4800000F0BD0CEF1200C01FA0EF520FA0CFCA9
:100A580002FA0EF74CEA050C00FA0EF44FEA174AB0
:100A6800250CBCFBFAF81FFA87F90AFB18CC45EAF3
:100A78000C4508FB09F3AB420AD9ED1908F1FF321E
:100A880080F02381AB4240F22081A8F102083D4466
:100A9800ED1AA4B2B5FBFAF00AFB105544EA054476
:100AA80000FB09F9A14509D9E41900F1FF3380F0E9
:100AB8000A81A14540F2078102383C44A4EB0904AD
:100AC80040EA08400021002E61D024FA0EF40023E9
:100AD80034607360BDE8F0878B4207D9002E54D08C
:100AE800002186E821000846BDE8F087B3FA83F1C3
:100AF800002940F08E80AB4202D3824200F2FA8095
:100B0800841A65EB03050120AC46002E3FD086E829
:100B18001010BDE8F08712B90127B7FBF2F7B7FA52
:100B280087FEBEF1000F34D1EB1B3A0C1FFA87FC8D
:100B38000121B3FBF2F8250C02FB183345EA034503
:100B48000CFB08F3AB4207D9ED1908F1FF3002D2CC
:100B5800AB4200F2D1808046ED1AA3B2B5FBF2F0A9
:100B680002FB105543EA05440CFB00FCA44507D9D9
:100B7800E41900F1FF3302D2A44500F2B880184608
:100B8800A4EB0C0440EA08409DE731463046BDE836
:100B9800F087CEF1200405FA0EF307FA0EF720FAD3
:100BA80004F83A0C25FA04F448EA0308B4FBF2F115
:100BB8004FEA184502FB11441FFA87FC45EA044531
:100BC80001FB0CF3AB4200FA0EF409D9ED1901F15F
:100BD800FF3080F08A80AB4240F2878002393D4482
:100BE800EB1A1FFA88F5B3FBF2F002FB103345EA63
:100BF800034500FB0CF3AB4207D9ED1900F1FF38B0
:100C08006FD2AB426DD902383D44EB1A40EA01413C
:100C18008FE7C1F1200722FA07F88B4005FA01F4A3
:100C280048EA030320FA07FE4FEA134CFD404EEA58
:100C3800040EB5FBFCF94FEA1E440CFB19551FFACC
:100C480083F844EA054509FB08F4AC4202FA01F2CC
:100C580000FA01FA08D9ED1809F1FF3043D2AC4285
:100C680041D9A9F102091D442D1B1FFA8EFEB5FBBF
:100C7800FCF00CFB10554EEA054400FB08F8A045B3
:100C880007D9E41800F1FF3529D2A04527D9023841
:100C98001C4440EA0940A4EB0804A0FB02894C4527
:100CA800C6464D4615D312D056B1BAEB0E0364EBC7
:100CB800050404FA07F7CB401F43CC403760746043
:100CC8000021BDE8F0871846F8E69046E0E6C24500
:100CD800EAD2B8EB020E69EB03050138E4E72846CF
:100CE800D7E7404691E78146BEE7014678E70238F4
:100CF8003C4445E7084608E7A8F102083D442BE7CD
:100D0800704700BF80B500AF0E4A0E4B1B6843F416
:100D1800007313600B4A0B4B1B6843F4806313602A
:100D2800084A084B1B6843F480731360032000F0E3
:100D38002DF9002000F008F802F046F900231846C3
:100D480080BD00BF003C024080B582B000AF786033
:100D5800124B1A68124B1B7819464FF47A73B3FB7F
:100D6800F1F3B2FBF3F3184600F037F90346002B12
:100D780001D001230EE07B680F2B0AD80022796886
:100D88004FF0FF3000F00DF9064A7B68136000232E
:100D980000E0012318460837BD4680BD0800002042
:100DA800040000200000002080B400AF064B1B7830
:100DB8001A46064B1B681344044A136000BFBD461D
:100DC8005DF8047B704700BF040000202800002065
:100DD80080B400AF034B1B681846BD465DF8047B22
:100DE800704700BF2800002080B584B000AF78604D
:100DF800FFF7EEFFB8607B68FB60FB68B3F1FF3F6D
:100E080005D0094B1B781A46FB681344FB6000BFEA
:100E1800FFF7DEFF0246BB68D21AFB689A42F7D397
:100E280000BF1037BD4680BD0400002080B485B0E7
:100E380000AF78607B6803F00703FB600C4BDB684E
:100E4800BB60BA684FF6FF031340BB60FB681A0229
:100E5800BB68134343F0BF6343F40033BB60044AE9
:100E6800BB68D36000BF1437BD465DF8047B70478C
:100E780000ED00E080B400AF044BDB681B0A03F010
:100E880007031846BD465DF8047B704700ED00E097
:100E980080B483B000AF03463960FB7197F907301F
:100EA800002B0ADB0D4997F907303A68D2B21201D4
:100EB800D2B20B4483F800230AE00949FB7903F016
:100EC8000F03043B3A68D2B21201D2B20B441A762D
:100ED80000BF0C37BD465DF8047B704700E100E0B9
:100EE80000ED00E080B489B000AFF860B9607A60C6
:100EF800FB6803F00703FB61FB69C3F10703042BDD
:100F080028BF0423BB61FB690433062B02D9FB69A4
:100F1800033B00E000237B610122BB6902FA03F373
:100F28005A1EBB681A407B699A4001217B6901FA05
:100F380003F3591E7B680B40134318462437BD46FC
:100F48005DF8047B7047000080B582B000AF786020
:100F58007B68013BB3F1807F01D301230FE00A4A8C
:100F68007B68013B53600F214FF0FF30FFF790FF84
:100F7800054B00229A60044B07221A60002318468A
:100F88000837BD4680BD00BF10E000E080B582B0E4
:100F980000AF78607868FFF749FF00BF0837BD46A3
:100FA80080BD80B586B000AF0346B9607A60FB7338
:100FB80000237B61FFF75EFF78617A68B96878691A
:100FC800FFF790FF024697F90F3011461846FFF7D2
:100FD8005FFF00BF1837BD4680BD80B582B000AF47
:100FE80078607868FFF7B0FF034618460837BD46B3
:100FF80080BD000080B489B000AF786039600023FC
:101008007B6100233B610023BB610023FB616BE133
:101018000122FB6902FA03F37B613B681A687B696A
:1010280013403B613A697B699A4240F05A813B68B8
:101038005B68012B0BD03B685B68022B07D03B68D1
:101048005B68112B03D03B685B68122B30D17B683F
:101058009B68BB61FB695B00032202FA03F3DB4375
:10106800BA691340BB613B68DA68FB695B0002FA46
:1010780003F3BA691343BB617B68BA699A607B68FA
:101088005B68BB610122FB6902FA03F3DB43BA69BF
:101098001340BB613B685B681B0903F00102FB69F5
:1010A80002FA03F3BA691343BB617B68BA695A60F1
:1010B8007B68DB68BB61FB695B00032202FA03F310
:1010C800DB43BA691340BB613B689A68FB695B0004
:1010D80002FA03F3BA691343BB617B68BA69DA6041
:1010E8003B685B68022B03D03B685B68122B23D1FB
:1010F800FB69DA087B68083253F82230BB61FB6968
:1011080003F007039B000F2202FA03F3DB43BA69DB
:101118001340BB613B681A69FB6903F007039B0036
:1011280002FA03F3BA691343BB61FB69DA087B6807
:101138000832B96943F822107B681B68BB61FB69F8
:101148005B00032202FA03F3DB43BA691340BB6175
:101158003B685B6803F00302FB695B0002FA03F378
:10116800BA691343BB617B68BA691A603B685B68FC
:1011780003F08053002B00F0B4800023FB605F4A2B
:101188005E4B5B6C43F4804353645C4B5B6C03F4D1
:101198008043FB60FB685A4AFB699B08023352F89C
:1011A8002330BB61FB6903F003039B000F2202FAA3
:1011B80003F3DB43BA691340BB617B68514A93422E
:1011C8002BD07B68504A934225D07B684F4A934284
:1011D8001FD07B684E4A934219D07B684D4A934290
:1011E80013D07B684C4A93420DD07B684B4A93429C
:1011F80007D07B684A4A934201D107230EE00823AF
:101208000CE006230AE0052308E0042306E0032394
:1012180004E0022302E0012300E00023FA6902F05F
:10122800030292009340BA691343BB613449FB69D6
:101238009B080233BA6941F823203A4B1B68BB610B
:101248003B69DB43BA691340BB613B685B6803F4E5
:101258008033002B03D0BA693B691343BB61314A21
:10126800BB6913602F4B5B68BB613B69DB43BA69A1
:101278001340BB613B685B6803F40033002B03D069
:10128800BA693B691343BB61264ABB695360254B66
:101298009B68BB613B69DB43BA691340BB613B6830
:1012A8005B6803F48013002B03D0BA693B691343CE
:1012B800BB611C4ABB6993601A4BDB68BB613B6925
:1012C800DB43BA691340BB613B685B6803F40013F6
:1012D800002B03D0BA693B691343BB61114ABB6950
:1012E800D360FB690133FB61FB690F2B7FF690AE7E
:1012F80000BF2437BD465DF8047B704700380240C4
:10130800003801400000024000040240000802408A
:10131800000C024000100240001402400018024075
:10132800001C0240003C014080B483B000AF7860EC
:101338000B467B8013467B707B78002B03D07A8822
:101348007B689A6103E07B881A047B689A6100BF16
:101358000C37BD465DF8047B7047000090B585B03A
:1013680000AF78607B68002B01D101231FE17B6807
:1013780093F83D30DBB2002B06D17B68002283F85E
:101388003C20786801F048FE7B68242283F83D20E1
:101398007B681B687A681268126822F001021A607A
:1013A8007B681B687A681268126842F400421A6007
:1013B8007B681B687A681268126822F400421A6017
:1013C80001F0B6FBF8607B685B687B4A934207D8FC
:1013D800FB687A4A934294BF01230023DBB206E0FC
:1013E800FB68774A934294BF01230023DBB2002BAA
:1013F80001D00123DBE0FB68724AA2FB03239B0CAC
:10140800BB607B681B687A681268526822F03F01EB
:10141800BA680A435A607B681A687B681B681B6A4B
:1014280023F03F017B685B686348834202D8BB684E
:10143800013309E0BB684FF4967000FB03F3624880
:10144800A0FB03039B0901330B4313627B681868F5
:101458007B681B68DB6923F44F4222F0FF027B683C
:101468005B6855498B420DD8FB68591E7B685B68E1
:101478005B00B1FBF3F30133C3F30B03042B38BF59
:1014880004234FE07B689B68002B11D1FB685C1E2E
:101498007B6859680B465B000B44B4FBF3F30133DC
:1014A800C3F30B03002B0CBF01230023DBB212E0B4
:1014B800FB685C1E7B6859680B469B000B449900CF
:1014C8000B44B4FBF3F30133C3F30B03002B0CBF42
:1014D80001230023DBB2002B01D0012322E07B682B
:1014E8009B68002B0ED1FB685C1E7B6859680B4615
:1014F8005B000B44B4FBF3F30133C3F30B0343F476
:1015080000430FE0FB685C1E7B6859680B469B0034
:101518000B4499000B44B4FBF3F30133C3F30B03FF
:1015280043F440431343C3617B681B687A681268BD
:10153800126822F0C0017A68D0697A68126A024398
:101548000A431A607B681A687B681B689B6823F4E7
:10155800034323F0FF03796808697968C968014380
:101568000B4393607B681B687A681268D26822F024
:10157800FF017A6850697A68926902430A43DA601F
:101588007B681B687A681268126842F001021A6068
:101598007B6800221A647B68202283F83D207B68E0
:1015A80000221A637B68002283F83E200023184635
:1015B8001437BD4690BD00BFA08601007F841E0081
:1015C800FF083D0083DE1B43D34D621080B588B011
:1015D80002AFF860084611461A4603467B810B465F
:1015E8003B811346FB80FFF7F3FB7861FB6893F8B8
:1015F8003D30DBB2202B40F0D9807B690093192362
:1016080001226D49F86800F07BFC0346002B01D0ED
:101618000223CCE0FB6893F83C30012B01D1022374
:10162800C5E0FB68012283F83C20FB681B681B6847
:1016380003F00103012B07D0FB681B68FA681268E6
:10164800126842F001021A60FB681B68FA681268A7
:10165800126822F400621A60FB68212283F83D2098
:10166800FB68402283F83E20FB6800221A64FB686E
:101678003A6A5A62FB68BA8C5A85FB685B8D9AB2E3
:10168800FB681A85FB684D4ADA62F8883A897989D5
:101698007B690193BB6A00930346F86800F0B6FAC9
:1016A8000346002B52D0012381E07A69B96AF868B1
:1016B80000F0FCFC0346002B0DD0FB681B6C042BD0
:1016C80007D1FB681B68FA681268126842F4007256
:1016D8001A6001236BE0FB681B68FA68526A12788B
:1016E8001A61FB685B6A5A1CFB685A62FB681B8DAF
:1016F800013B9AB2FB681A85FB685B8D9BB2013B84
:101708009AB2FB685A85FB681B685B6903F004039F
:10171800042B1BD1FB681B8D002B17D0FB681B68A3
:10172800FA68526A12781A61FB685B6A5A1CFB688D
:101738005A62FB681B8D013B9AB2FB681A85FB68ED
:101748005B8D9BB2013B9AB2FB685A85FB681B8D87
:10175800002BAAD17A69B96AF86800F0E8FC034658
:10176800002B0DD0FB681B6C042B07D1FB681B6892
:10177800FA681268126842F400721A60012316E0CF
:10178800FB681B68FA681268126842F400721A60F3
:10179800FB68202283F83D20FB68002283F83E2066
:1017A800FB68002283F83C20002300E0022318464F
:1017B8001837BD4680BD00BF020010000000FFFFC3
:1017C80080B58CB002AFF860084611461A46034649
:1017D8007B810B463B811346FB80FFF7F9FA786261
:1017E800FB6893F83D30DBB2202B40F008827B6A1F
:1017F8000093192301227B49F86800F081FB034616
:10180800002B01D00223FBE1FB6893F83C30012B4D
:1018180001D10223F4E1FB68012283F83C20FB6834
:101828001B681B6803F00103012B07D0FB681B68CA
:10183800FA681268126842F001021A60FB681B68B5
:10184800FA681268126822F400621A60FB682222A1
:1018580083F83D20FB68402283F83E20FB68002285
:101868001A64FB683A6B5A62FB68BA8E5A85FB6841
:101878005B8D9AB2FB681A85FB685B4ADA62F88866
:101888003A8979897B6A0193BB6B00930346F868B0
:1018980000F050FA0346002B01D00123B0E1FB68A9
:1018A8001B8D002B13D100233B62FB681B685B690F
:1018B8003B62FB681B689B693B623B6AFB681B6871
:1018C800FA681268126842F400721A6084E1FB68D0
:1018D8001B8D012B1BD1FB681B68FA681268126804
:1018E80022F480621A600023FB61FB681B685B6955
:1018F800FB61FB681B689B69FB61FB69FB681B68F4
:10190800FA681268126842F400721A6064E1FB68AF
:101918001B8D022B1BD1FB681B68FA6812681268C2
:1019280022F480621A60FB681B68FA681268126801
:1019380042F400621A600023BB61FB681B685B69A4
:10194800BB61FB681B689B69BB61BB6944E1002301
:101958007B61FB681B685B697B61FB681B689B6933
:101968007B617B6938E1FB681B8D032B00F2F180FA
:10197800FB681B8D012B23D17A6AB96BF86800F0DC
:1019880017FC0346002B01D0012339E1FB685B6A91
:10199800FA6812681269D2B21A70FB685B6A5A1C3C
:1019A800FB685A62FB681B8D013B9AB2FB681A857B
:1019B800FB685B8D9BB2013B9AB2FB685A850BE1D1
:1019C800FB681B8D022B4ED17B6A0093BB6B0022F8
:1019D8000649F86800F094FA0346002B08D0012362
:1019E8000EE100BF020010000000FFFF040001002C
:1019F800FB681B68FA681268126842F400721A6081
:101A0800FB685B6AFA6812681269D2B21A70FB68DE
:101A18005B6A5A1CFB685A62FB681B8D013B9AB2D1
:101A2800FB681A85FB685B8D9BB2013B9AB2FB6829
:101A38005A85FB685B6AFA6812681269D2B21A7032
:101A4800FB685B6A5A1CFB685A62FB681B8D013B8A
:101A58009AB2FB681A85FB685B8D9BB2013B9AB210
:101A6800FB685A85B8E07B6A0093BB6B0022664925
:101A7800F86800F045FA0346002B01D00123BFE0C7
:101A8800FB681B68FA681268126822F480621A60A0
:101A9800FB685B6AFA6812681269D2B21A70FB684E
:101AA8005B6A5A1CFB685A62FB681B8D013B9AB241
:101AB800FB681A85FB685B8D9BB2013B9AB2FB6899
:101AC8005A857B6A0093BB6B00224F49F86800F087
:101AD80017FA0346002B01D0012391E0FB681B682D
:101AE800FA681268126842F400721A60FB685B6A4E
:101AF800FA6812681269D2B21A70FB685B6A5A1CDB
:101B0800FB685A62FB681B8D013B9AB2FB681A8519
:101B1800FB685B8D9BB2013B9AB2FB685A85FB68F8
:101B28005B6AFA6812681269D2B21A70FB685B6A5B
:101B38005A1CFB685A62FB681B8D013B9AB2FB6812
:101B48001A85FB685B8D9BB2013B9AB2FB685A858C
:101B580042E07A6AB96BF86800F02AFB0346002B6A
:101B680001D001234CE0FB685B6AFA6812681269CD
:101B7800D2B21A70FB685B6A5A1CFB685A62FB682F
:101B88001B8D013B9AB2FB681A85FB685B8D9BB283
:101B9800013B9AB2FB685A85FB681B685B6903F0D6
:101BA8000403042B18D1FB685B6AFA68126812698F
:101BB800D2B21A70FB685B6A5A1CFB685A62FB68EF
:101BC8001B8D013B9AB2FB681A85FB685B8D9BB243
:101BD800013B9AB2FB685A85FB681B8D002B7FF48A
:101BE800C2AEFB68202283F83D20FB68002283F800
:101BF8003E20FB68002283F83C20002300E00223FB
:101C080018462837BD4680BD0400010080B588B05D
:101C180002AFF860084611461A4603467B810B4618
:101C28003B811346FB80FB681B68FA6812681268E0
:101C380042F480721A607B6A00933B6A00224FF07C
:101C48000111F86800F05CF90346002B0CD0FB6822
:101C58001B681B6803F48073002B03D0FB684FF4E8
:101C680000721A6403235EE0FB681B687A89D2B2AB
:101C780002F0FE021A617B6A3A6A2D49F86800F0A0
:101C880096F90346002B01D001234CE000237B6129
:101C9800FB681B685B697B61FB681B689B697B61F0
:101CA8007B697A6A396AF86800F000FA0346002B03
:101CB8000DD0FB681B6C042B07D1FB681B68FA6806
:101CC8001268126842F400721A6001232BE0FB8844
:101CD800012B05D1FB681B683A89D2B21A6121E051
:101CE800FB681B683A89120A92B2D2B21A617A6A00
:101CF800396AF86800F0DAF90346002B0DD0FB6862
:101D08001B6C042B07D1FB681B68FA681268126801
:101D180042F400721A60012305E0FB681B683A89E7
:101D2800D2B21A61002318461837BD4680BD00BFDD
:101D38000200010080B588B002AFF860084611467D
:101D48001A4603467B810B463B811346FB80FB68A2
:101D58001B68FA681268126842F480621A60FB68AD
:101D68001B68FA681268126842F480721A607B6A0B
:101D780000933B6A00224FF00111F86800F0C0F8A8
:101D88000346002B0CD0FB681B681B6803F48073A8
:101D9800002B03D0FB684FF400721A640323A8E0F9
:101DA800FB681B687A89D2B202F0FE021A617B6A6C
:101DB8003A6A5249F86800F0FAF80346002B01D055
:101DC800012396E000237B61FB681B685B697B61EC
:101DD800FB681B689B697B617B697A6A396AF8686A
:101DE80000F064F90346002B0DD0FB681B6C042B34
:101DF80007D1FB681B68FA681268126842F400721F
:101E08001A60012375E0FB88012B05D1FB681B686C
:101E18003A89D2B21A6121E0FB681B683A89120A32
:101E280092B2D2B21A617A6A396AF86800F03EF959
:101E38000346002B0DD0FB681B6C042B07D1FB68F5
:101E48001B68FA681268126842F400721A6001236B
:101E58004FE0FB681B683A89D2B21A617A6A396A1C
:101E6800F86800F023F90346002B0DD0FB681B6CC3
:101E7800042B07D1FB681B68FA681268126842F4E1
:101E880000721A60012334E0FB681B68FA68126864
:101E9800126842F480721A607B6A00933B6A0022DF
:101EA8004FF00111F86800F02BF80346002B0CD016
:101EB800FB681B681B6803F48073002B03D0FB6866
:101EC8004FF400721A64032313E0FB681B687A89D5
:101ED800D2B242F00102D2B21A617B6A3A6A074969
:101EE800F86800F064F80346002B01D0012300E0F5
:101EF800002318461837BD4680BD00BF0200010008
:101F080080B584B000AFF860B9603B601346FB71E0
:101F180025E03B68B3F1FF3F21D0FEF759FF0246A9
:101F2800BB69D21A3B689A4202D83B68002B16D18B
:101F3800FB6800221A63FB68202283F83D20FB68B7
:101F4800002283F83E20FB681B6C43F02002FB68EC
:101F58001A64FB68002283F83C20012323E0BB6855
:101F68001B0CDBB2012B0DD1FB681B685B69DA43E4
:101F7800BB6813409BB2002B0CBF01230023DBB2CC
:101F88001A460CE0FB681B689B69DA43BB68134080
:101F98009BB2002B0CBF01230023DBB21A46FB794E
:101FA8009A42B6D0002318461037BD4680BD80B58A
:101FB80084B000AFF860B9607A603B6051E0FB68BC
:101FC8001B685B6903F48063B3F5806F23D1FB68FA
:101FD8001B68FA681268126842F400721A60FB689B
:101FE8001B686FF480625A61FB6800221A63FB6801
:101FF800202283F83D20FB68002283F83E20FB68FE
:102008001B6C43F00402FB681A64FB68002283F827
:102018003C20012346E07B68B3F1FF3F21D0FEF767
:10202800D7FE02463B68D21A7B689A4202D87B6880
:10203800002B16D1FB6800221A63FB68202283F864
:102048003D20FB68002283F83E20FB681B6C43F0B0
:102058002002FB681A64FB68002283F83C200123F5
:1020680020E0BB681B0CDBB2012B0CD1FB681B68A2
:102078005B69DA43BB6813409BB2002B14BF012392
:102088000023DBB20BE0FB681B689B69DA43BB6883
:1020980013409BB2002B14BF01230023DBB2002B9B
:1020A8008DD1002318461037BD4680BD80B584B059
:1020B80000AFF860B9607A602DE0F86800F0CEF8FB
:1020C8000346002B01D001232DE0BB68B3F1FF3F8D
:1020D80021D0FEF77DFE02467B68D21ABB689A4281
:1020E80002D8BB68002B16D1FB6800221A63FB6874
:1020F800202283F83D20FB68002283F83E20FB68FD
:102108001B6C43F02002FB681A64FB68002283F80A
:102118003C20012307E0FB681B685B6903F0800330
:10212800802BCAD1002318461037BD4680BD80B524
:1021380084B000AFF860B9607A602DE0F86800F00C
:102148008DF80346002B01D001232DE0BB68B3F1C5
:10215800FF3F21D0FEF73CFE02467B68D21ABB68DF
:102168009A4202D8BB68002B16D1FB6800221A637A
:10217800FB68202283F83D20FB68002283F83E207C
:10218800FB681B6C43F02002FB681A64FB680022A2
:1021980083F83C20012307E0FB681B685B6903F0B8
:1021A8000403042BCAD1002318461037BD4680BD4E
:1021B80080B584B000AFF860B9607A6042E0FB682F
:1021C8001B685B6903F01003102B19D1FB681B68AF
:1021D8006FF010025A61FB6800221A63FB68202224
:1021E80083F83D20FB68002283F83E20FB681A6CC8
:1021F800FB681A64FB68002283F83C20012329E06D
:10220800FEF7E6FD02467B68D21ABB689A4202D8FE
:10221800BB68002B16D1FB6800221A63FB682022DA
:1022280083F83D20FB68002283F83E20FB681B6C86
:1022380043F02002FB681A64FB68002283F83C2004
:10224800012307E0FB681B685B6903F04003402B30
:10225800B5D1002318461037BD4680BD80B483B081
:1022680000AF78607B681B685B6903F48063B3F533
:10227800806F1BD17B681B686FF480625A617B6832
:1022880000221A637B68202283F83D207B680022A5
:1022980083F83E207B681B6C43F004027B681A6459
:1022A8007B68002283F83C20012300E000231846C5
:1022B8000C37BD465DF8047B7047000080B586B0DA
:1022C80000AF78607B68002B01D101235BE27B685B
:1022D8001B6803F00103002B75D0A34B9B6803F028
:1022E8000C03042B0CD0A04B9B6803F00C03082BA9
:1022F80012D19D4B5B6803F48003B3F5800F0BD1BB
:10230800994B1B6803F40033002B5BD07B685B6838
:10231800002B57D1012336E27B685B68B3F5803F19
:1023280006D1914A904B1B6843F4803313601DE03B
:102338007B685B68B3F5A02F0CD18B4A8A4B1B686E
:1023480043F480231360884A874B1B6843F4803327
:1023580013600BE0844A844B1B6823F480331360BA
:10236800814A814B1B6823F4802313607B685B6878
:10237800002B13D0FEF72CFD386108E0FEF728FD8E
:1023880002463B69D31A642B01D90323FBE1764B40
:102398001B6803F40033002BF0D014E0FEF718FD9F
:1023A800386108E0FEF714FD02463B69D31A642B36
:1023B80001D90323E7E16C4B1B6803F40033002BBE
:1023C800F0D100E000BF7B681B6803F00203002B1C
:1023D80063D0654B9B6803F00C03002B0BD0624B5A
:1023E8009B6803F00C03082B1CD15F4B5B6803F45C
:1023F8008003002B16D15C4B1B6803F00203002BF3
:1024080005D07B68DB68012B01D00123BBE156496D
:10241800554B1B6823F0F8027B681B69DB001343EC
:102428000B603AE07B68DB68002B20D04F4B012221
:102438001A60FEF7CDFC386108E0FEF7C9FC0246D9
:102448003B69D31A022B01D903239CE1464B1B6835
:1024580003F00203002BF0D04349434B1B6823F0E1
:10246800F8027B681B69DB0013430B6015E03F4BE8
:1024780000221A60FEF7ACFC386108E0FEF7A8FC01
:1024880002463B69D31A022B01D903237BE1364B61
:102498001B6803F00203002BF0D17B681B6803F074
:1024A8000803002B30D07B685B69002B16D0304BBB
:1024B80001221A60FEF78CFC386108E0FEF788FC00
:1024C80002463B69D31A022B01D903235BE1264B51
:1024D8005B6F03F00203002BF0D015E0244B0022C1
:1024E8001A60FEF775FC386108E0FEF771FC0246D9
:1024F8003B69D31A022B01D9032344E11A4B5B6FC2
:1025080003F00203002BF0D17B681B6803F004037F
:10251800002B00F0A0800023FB75134B1B6C03F00D
:102528008053002B0FD10023BB600F4A0E4B1B6C4E
:1025380043F0805313640C4B1B6C03F08053BB6057
:10254800BB680123FB750B4B1B6803F48073002BDE
:1025580021D1084A074B1B6843F480731360FEF7C8
:1025680037FC386111E000BF0038024000004742E4
:10257800800E474200700040FEF72AFC02463B6985
:10258800D31A022B01D90323FDE0814B1B6803F406
:102598008073002BF0D07B689B68012B06D17D4AA5
:1025A8007C4B1B6F43F0010313671CE07B689B683F
:1025B800052B0CD1774A774B1B6F43F00403136745
:1025C800744A744B1B6F43F0010313670BE0714AA5
:1025D800704B1B6F23F0010313676E4A6D4B1B6F23
:1025E80023F0040313677B689B68002B15D0FEF764
:1025F800EFFB38610AE0FEF7EBFB02463B69D31AB2
:1026080041F28832934201D90323BCE0614B1B6F2E
:1026180003F00203002BEED014E0FEF7D9FB38617B
:102628000AE0FEF7D5FB02463B69D31A41F288322D
:10263800934201D90323A6E0564B1B6F03F0020314
:10264800002BEED1FB7D012B05D1524A514B1B6C5F
:1026580023F0805313647B689B69002B00F0928001
:102668004C4B9B6803F00C03082B5CD07B689B6980
:10267800022B41D1484B00221A60FEF7A9FB3861B2
:1026880008E0FEF7A5FB02463B69D31A022B01D9E5
:10269800032378E03F4B1B6803F00073002BF0D155
:1026A8003C497B68DA697B681B6A1A437B685B6A0A
:1026B8009B011A437B689B6A5B08013B1B041A4316
:1026C8007B68DB6A1B0613434B60334B01221A609D
:1026D800FEF77EFB386108E0FEF77AFB02463B69AD
:1026E800D31A022B01D903234DE02A4B1B6803F0B0
:1026F8000073002BF0D045E0274B00221A60FEF74C
:1027080067FB386108E0FEF763FB02463B69D31AB2
:10271800022B01D9032336E01E4B1B6803F000731C
:10272800002BF0D12EE07B689B69012B01D101239E
:1027380029E0184B5B68FB60FB6803F480027B6848
:10274800DB699A421CD1FB6803F03F027B681B6A75
:102758009A4215D1FA6847F6C07313407A68526AEC
:1027680093420DD1FB6803F440327B689B6A9A421E
:1027780006D1FB6803F070627B68DB6A9A4201D07D
:10278800012300E0002318461837BD4680BD00BF6E
:1027980000700040003802406000474280B584B0B5
:1027A80000AF786039607B68002B01D10123CCE051
:1027B800684B1B6803F00F023B689A420CD2654BCA
:1027C8003A68D2B21A70634B1B6803F00F023B6879
:1027D8009A4201D00123B8E07B681B6803F002032A
:1027E800002B20D07B681B6803F00403002B05D066
:1027F800594A594B9B6843F4E05393607B681B68C4
:1028080003F00803002B05D0534A534B9B6843F44D
:10281800604393605049504B9B6823F0F0027B68FB
:102828009B6813438B607B681B6803F00103002BD4
:1028380044D07B685B68012B07D1474B1B6803F4C6
:102848000033002B19D101237FE07B685B68022BE2
:1028580003D07B685B68032B07D13F4B1B6803F0F1
:102868000073002B09D101236FE03B4B1B6803F079
:102878000203002B01D1012367E03749364B9B68DF
:1028880023F003027B685B6813438B60FEF7A0FAB2
:10289800F8600AE0FEF79CFA0246FB68D31A41F298
:1028A8008832934201D903234FE02B4B9B6803F0F6
:1028B8000C027B685B689B009A42EBD1254B1B6836
:1028C80003F00F023B689A420CD9224B3A68D2B205
:1028D8001A70204B1B6803F00F023B689A4201D024
:1028E800012332E07B681B6803F00403002B08D047
:1028F8001949194B9B6823F4E0527B68DB68134342
:102908008B607B681B6803F00803002B09D0124911
:10291800114B9B6823F460427B681B69DB001343FF
:102928008B6000F021F801460B4B9B681B0903F0F4
:102938000F030A4AD35C21FA03F3094A1360094BCF
:102948001B681846FEF700FA002318461037BD46E4
:1029580080BD00BF003C02400038024054350008EA
:1029680008000020000000202DE9F04F8FB000AFD4
:102978000023FB6200237B630023BB6200233B63CD
:10298800624B9B6803F00C03042B07D0082B08D07C
:10299800002B40F0B2805E4B3B63B1E05D4B3B6384
:1029A800AEE05A4B5B6803F03F03FB62574B5B6832
:1029B80003F48003002B4ED0544B5B689B094FF007
:1029C800000440F2FF114FF0000201EA030102EA9D
:1029D80004020B46144660017862786A40EAD360C4
:1029E80078625B013B62D7E908345B1A64EB020446
:1029F8004FEA841949EA93694FEA8318B8EB030848
:102A080069EB04094FEAC903FB61FB6943EA5873A0
:102A1800FB614FEAC803BB61D7E9068918EB0108D7
:102A280049EB02094FEA49237B617B6943EAD853A2
:102A38007B614FEA48233B61D7E904894046494610
:102A4800FB6A4FF000041A462346FDF7D3FF0346FE
:102A58000C467B6343E02D4B5B689B094FF00004F9
:102A680040F2FF114FF0000201EA030102EA0402FA
:102A78000B4614466001F860F86840EAD360F860D5
:102A88005B01BB60D7E902345B1A64EB0204A60160
:102A980046EA93669D01ED1A66EB0406F3007B6037
:102AA8007B6843EA55737B60EB003B6097E8600006
:102AB8006D1846EB02064FEA862B4BEA955B4FEA08
:102AC800852A55465E4628463146FB6A4FF0000483
:102AD8001A462346FDF78EFF03460C467B630B4BD5
:102AE8005B681B0C03F0030301335B00BB627A6B6A
:102AF800BB6AB2FBF3F33B6302E0054B3B6300BFE9
:102B08003B6B18463C37BD46BDE8F08F00380240A5
:102B18000024F40000127A0080B400AF034B1B6855
:102B28001846BD465DF8047B704700BF08000020CA
:102B380080B500AFFFF7F0FF0146054B9B689B0A85
:102B480003F00703034AD35C21FA03F3184680BD58
:102B5800003802406435000880B58AB004AFF860D8
:102B6800B9601346FB71FB68BA681A60FB681122EA
:102B78001A7101233B75FB681B797B75FB79C82BA0
:102B880007D1FB681B7943F00C03DAB2FB681A71B2
:102B980024E0FB79642B07D1FB681B7943F0080319
:102BA800DAB2FB681A7119E0FB79322B07D1FB689E
:102BB8001B7943F00403DAB2FB681A710EE0FB7963
:102BC8000A2B04D1FB681A79FB681A7106E0FB68C6
:102BD8001B7943F00C03DAB2FB681A71FB681868BA
:102BE800642302930123019307F114030093012343
:102BF8000B221A21FEF7EAFC0346002B01D0012321
:102C080014E0FB681868642302930123019307F119
:102C1800140301330093012309221A21FEF7D6FC7D
:102C28000346002B01D0012300E000231846183783
:102C3800BD4680BD0000000090B587B004AF786045
:102C48007B6800225A717B6818687B6805336422A8
:102C58000292012201920093012306221A21FEF713
:102C6800AFFD7B685B7903F00103002B76D07B68AE
:102C780018687B6805336422029206220192009349
:102C8800012300221A21FEF79BFD7B689B791B021A
:102C98001AB27B685B791BB213431AB27B689A81BC
:102CA8007B681B7A1B021AB27B68DB791BB2134361
:102CB8001AB27B68DA817B689B7A1B021AB27B683E
:102CC8005B7A1BB213431AB27B681A827B68B3F92A
:102CD8000E3007EE903AF8EEE77A7B68B3F90C30DD
:102CE80007EE103AB8EEC77AF0EE470AB0EE670A78
:102CF80000F096FA10EE103A1846FDF7C5FB4FF0B3
:102D080000021D4BFDF714FC03460C4618462146ED
:102D180017A3D3E90023FDF735FD03460C461846F3
:102D28002146FDF717FE02467B689A617B68D3ED62
:102D3800067AF5EEC07AF1EE10FA04DD7B689A693E
:102D48007B685A610CE07B68D3ED067A9FED0B7ABD
:102D580077EE877A7B68C3ED057A01E0012300E00E
:102D6800002318460C37BD4690BD00BFAFF3008066
:102D7800182D4454FB210940008066400000B443EC
:102D880080B500AFFDF7BEFF00F02CF800F0C2F8E8
:102D980000F092F8C8220F490F48FFF7DDFE0E48F1
:102DA800FFF74AFF0346002B0AD101224FF40041E6
:102DB8000A48FEF7B9FA084B5B69094A136005E04F
:102DC80000224FF400410548FEF7AEFA3220FEF724
:102DD8000BF8E4E72C00002080000020000C0240E3
:102DE8009C00002080B594B000AF07F1200330228A
:102DF8000021184600F00CFA07F10C0300221A60B3
:102E08005A609A60DA601A610023BB60284A284B2E
:102E18001B6C43F080531364254B1B6C03F08053E9
:102E2800BB60BB6800237B60224A224B1B6843F4CB
:102E3800804313601F4B1B6803F480437B607B68EF
:102E480002233B620123FB6210233B630223BB6323
:102E58000023FB6308233B6432237B640423BB64A5
:102E68000723FB6407F120031846FFF727FA0346F8
:102E7800002B01D000F0A0F80F23FB6002233B6178
:102E880000237B614FF4A053BB614FF48053FB6177
:102E980007F10C0300211846FFF780FC0346002BBE
:102EA80001D000F089F800BF5037BD4680BD00BF93
:102EB800003802400070004080B500AF124B134A42
:102EC8001A60114B124A5A600F4B00229A600E4B3F
:102ED8000022DA600C4B4FF480421A610A4B002240
:102EE8005A61094B00229A61074B0022DA61064BAE
:102EF80000221A620448FEF731FA0346002B01D07B
:102F080000F05AF800BF80BD2C000020005C004093
:102F1800A086010080B588B000AF07F10C0300223D
:102F28001A605A609A60DA601A610023BB60204A0E
:102F38001F4B1B6B43F0080313631D4B1B6B03F004
:102F48000803BB60BB6800237B60194A184B1B6BE6
:102F580043F004031363164B1B6B03F004037B60FD
:102F68007B6800233B60124A114B1B6B43F0010343
:102F780013630F4B1B6B03F001033B603B6800229C
:102F88004FF400410B48FEF7CFF94FF40043FB60C4
:102F980001233B6100237B610023BB6107F10C0324
:102FA80019460448FEF726F800BF2037BD4680BD05
:102FB80000380240000C024080B400AF00BFBD469C
:102FC8005DF8047B7047000080B582B000AF002335
:102FD8007B60104A0F4B5B6C43F4804353640D4B8A
:102FE8005B6C03F480437B607B6800233B60094A89
:102FF800084B1B6C43F080531364064B1B6C03F0A7
:1030080080533B603B680720FDF7C0FF00BF0837CF
:10301800BD4680BD0038024080B58AB000AF7860F8
:1030280007F1140300221A605A609A60DA601A6184
:103038007B681B68294A93424BD100233B61284A8D
:10304800274B1B6B43F004031363254B1B6B03F0E7
:1030580004033B613B690023FB60214A204B1B6B47
:1030680043F0010313631E4B1B6B03F00103FB606A
:10307800FB684FF400737B611223BB610123FB6182
:1030880003233B6204237B6207F1140319461548A6
:10309800FDF7B0FF4FF480737B611223BB610123FE
:1030A800FB6103233B6204237B6207F11403194687
:1030B8000D48FDF79FFF0023BB60094A084B1B6CB6
:1030C80043F400031364064B1B6C03F40003BB605A
:1030D800BB6800BF2837BD4680BD00BF005C00400C
:1030E80000380240000802400000024080B400AFEF
:1030F80000BFBD465DF8047B704780B400AFFEE7B3
:1031080080B400AFFEE780B400AFFEE780B400AF44
:10311800FEE780B400AF00BFBD465DF8047B704792
:1031280080B400AF00BFBD465DF8047B704780B433
:1031380000AF00BFBD465DF8047B704780B500AFA7
:10314800FDF732FE00BF80BD80B400AF084A084BCF
:10315800D3F8883043F47003C2F88830044B4FF03A
:1031680000629A6000BFBD465DF8047B704700BFEF
:1031780000ED00E0DFF834D0002103E00C4B5B5891
:10318800435004310B480C4B42189A42F6D30B4A71
:1031980002E0002342F8043B094B9A42F9D3FFF7B7
:1031A800D3FF00F011F8FFF7EBFD70470000022095
:1031B8009C350008000000200C0000200C000020B6
:1031C800A0000020FEE7000070B50D4E0D4CA41BBA
:1031D800A4100025A54209D10B4E0C4C00F0AAF909
:1031E800A41BA4100025A54205D170BD56F82530B2
:1031F80098470135EEE756F8253098470135F2E74C
:10320800943500089435000894350008983500086E
:1032180002440346934200D1704703F8011BF9E7C3
:1032280000F000B810EE902A22F00041B1F1FF4FF3
:1032380010B5F0EE407A06DC10EE100A20F00043DC
:10324800B3F1FF4F04DD77EEA07AB0EE670A10BD48
:10325800B2F17E5F03D1BDE8104000F091B8941739
:1032680004F0020444EAD07443B9022C33D09FED31
:10327800397A032C08BFF0EE477AE6E741B99FEDAB
:10328800367ADFED367A0028B8BFF0EE477ADCE709
:10329800B1F1FF4F25D1B3F1FF4F12D1022C0AD063
:1032A800032C0BD09FED2E7ADFED2E7A012C18BF60
:1032B800F0EE477AC9E7DFED2C7AC6E7DFED2B7A27
:1032C800C3E7022C07D0032C08D0012C9FED287AE5
:1032D800DFED287AEBE7DFED287AB6E7DFED1D7A38
:1032E800B3E7B3F1FF4FCAD05B1ADB153C2B1ADCEE
:1032F800002A01DA3C3319DB87EEA00A00F012F944
:1033080000F03EF8F0EE407A012C12D0022C17D0D3
:10331800002C9AD09FED197A77EE877A9FED167A6E
:1033280077EEC77A91E7DFED0D7AEDE7DFED107AFA
:10333800EAE717EE903A03F1004307EE903A84E784
:103348009FED0E7A77EE877A9FED0B7A77EE677AA4
:103358007BE700BFDB0F49C0DB0FC9BFDB0FC93FED
:10336800DB0F493FDB0F49BFE4CB1640E4CB16C067
:103378000000000000000080DB0F49402EBDBB3379
:1033880038B510EE105A25F00044B4F1A14FF0EE14
:10339800407A10DBB4F1FF4F04DD70EE007AB0EE36
:1033A800670A38BDDFED4C7A9FED4C7A002DC8BF17
:1033B800F0EE477AF3E74A4B9C4210DCB4F1445FE5
:1033C8000ADA9FED487A30EE077AF7EE006AB4EE33
:1033D800E67AF1EE10FAE2DC4FF0FF3313E000F08A
:1033E800A1F8414B9C424DDCA3F5D0039C423FDC45
:1033F800F0EE007ABFEE007AA0EE277A002330EED6
:10340800270AC7EE007A5A1C27EEA76ADFED376A4B
:10341800DFED375A9FED375A26EE067AE7EE265A41
:10342800DFED356AE7EE256ADFED345AE7EE265A16
:10343800DFED336AE7EE256ADFED325AE7EE265A0A
:10344800DFED316AA7EE265ADFED306AE7EE056A4E
:103458009FED2F5AA7EE265ADFED2E6AE7EE056A92
:1034680026EE877A05EE867A21D1E7EEC77A96E7C7
:10347800F7EE007A30EE677A30EE270A0123C7EEBE
:10348800007AC0E7244B9C420BDCF7EE087AB7EED3
:10349800007AA0EE277A022370EE676AC6EE877A72
:1034A800B1E7BFEE007AC7EE007A0323ABE71B4A09
:1034B8001B499B001A440B44D3ED006AD7EE876A78
:1034C800002D92ED007A76EEE77A77EE677AB8BF4C
:1034D800F1EE677A63E700BFDB0FC9BFDB0FC93FB7
:1034E800FFFFDF3ECAF24971FFFF973FD769853C6E
:1034F80059DA4B3D6BF16EBD356B883D6E2EBA3D8A
:103508002549123EABAAAA3E21A215BD95879DBDAD
:10351800388EE3BDCDCC4CBEFFFF1B406C35000898
:103528007C35000810EE103A23F0004300EE103A04
:1035380070470000F8B500BFF8BC08BC9E4670474D
:0C354800F8B500BFF8BC08BC9E467047F8
:10355400000000000000000001020304060708093F
:1035640000000000010203043863ED3EDA0F493F16
:103574005E987B3FDA0FC93F6937AC31682122334B
:08358400B40F14336821A233D7
:08358C00A0D4FF7F0100000044
:04359400AD0100087D
:04359800890100089D
:0C359C0010000000010000000024F400FA
:040000050800317D41
:00000001FF
